{
  "_format": "hh-sol-artifact-1",
  "contractName": "Vault",
  "sourceName": "contracts/Vault.sol",
  "abi": [
    {
      "inputs": [],
      "stateMutability": "nonpayable",
      "type": "constructor"
    },
    {
      "anonymous": false,
      "inputs": [
        {
          "indexed": true,
          "internalType": "address",
          "name": "from",
          "type": "address"
        },
        {
          "indexed": false,
          "internalType": "uint256",
          "name": "amount",
          "type": "uint256"
        }
      ],
      "name": "Deposited",
      "type": "event"
    },
    {
      "anonymous": false,
      "inputs": [
        {
          "indexed": true,
          "internalType": "address",
          "name": "to",
          "type": "address"
        },
        {
          "indexed": false,
          "internalType": "uint256",
          "name": "amount",
          "type": "uint256"
        }
      ],
      "name": "Withdrawn",
      "type": "event"
    },
    {
      "inputs": [],
      "name": "balance",
      "outputs": [
        {
          "internalType": "uint256",
          "name": "",
          "type": "uint256"
        }
      ],
      "stateMutability": "view",
      "type": "function"
    },
    {
      "inputs": [],
      "name": "deposit",
      "outputs": [],
      "stateMutability": "payable",
      "type": "function"
    },
    {
      "inputs": [],
      "name": "getBalance",
      "outputs": [
        {
          "internalType": "uint256",
          "name": "",
          "type": "uint256"
        }
      ],
      "stateMutability": "view",
      "type": "function"
    },
    {
      "inputs": [],
      "name": "owner",
      "outputs": [
        {
          "internalType": "address",
          "name": "",
          "type": "address"
        }
      ],
      "stateMutability": "view",
      "type": "function"
    },
    {
      "inputs": [
        {
          "internalType": "uint256",
          "name": "amount",
          "type": "uint256"
        }
      ],
      "name": "withdraw",
      "outputs": [],
      "stateMutability": "nonpayable",
      "type": "function"
    },
    {
      "stateMutability": "payable",
      "type": "receive"
    }
  ],
  "bytecode": "0x608060405234801561001057600080fd5b50336000806101000a81548173ffffffffffffffffffffffffffffffffffffffff021916908373ffffffffffffffffffffffffffffffffffffffff160217905550610762806100606000396000f3fe60806040526004361061004e5760003560e01c806312065fe0146100625780632e1a7d4d1461008d5780638da5cb5b146100b6578063b69ef8a8146100e1578063d0e30db01461010c5761005d565b3661005d5761005b610116565b005b600080fd5b34801561006e57600080fd5b506100776101c2565b60405161008491906105f4565b60405180910390f35b34801561009957600080fd5b506100b460048036038101906100af9190610412565b6101cc565b005b3480156100c257600080fd5b506100cb6103d3565b6040516100d89190610559565b60405180910390f35b3480156100ed57600080fd5b506100f66103f7565b60405161010391906105f4565b60405180910390f35b610114610116565b005b60003411610159576040517f08c379a0000000000000000000000000000000000000000000000000000000008152600401610150906105d4565b60405180910390fd5b346001600082825461016b9190610620565b925050819055503373ffffffffffffffffffffffffffffffffffffffff167f2da466a7b24304f47e87fa2e1e5a81b9831ce54fec19055ce277ca2f39ba42c4346040516101b891906105f4565b60405180910390a2565b6000600154905090565b60008054906101000a900473ffffffffffffffffffffffffffffffffffffffff1673ffffffffffffffffffffffffffffffffffffffff163373ffffffffffffffffffffffffffffffffffffffff161461025a576040517f08c379a0000000000000000000000000000000000000000000000000000000008152600401610251906105b4565b60405180910390fd5b6000811161029d576040517f08c379a000000000000000000000000000000000000000000000000000000000815260040161029490610574565b60405180910390fd5b8060015410156102e2576040517f08c379a00000000000000000000000000000000000000000000000000000000081526004016102d990610594565b60405180910390fd5b80600160008282546102f49190610676565b9250508190555060008054906101000a900473ffffffffffffffffffffffffffffffffffffffff1673ffffffffffffffffffffffffffffffffffffffff166108fc829081150290604051600060405180830381858888f19350505050158015610361573d6000803e3d6000fd5b5060008054906101000a900473ffffffffffffffffffffffffffffffffffffffff1673ffffffffffffffffffffffffffffffffffffffff167f7084f5476618d8e60b11ef0d7d3f06914655adb8793e28ff7f018d4c76d505d5826040516103c891906105f4565b60405180910390a250565b60008054906101000a900473ffffffffffffffffffffffffffffffffffffffff1681565b60015481565b60008135905061040c81610715565b92915050565b60006020828403121561042457600080fd5b6000610432848285016103fd565b91505092915050565b610444816106aa565b82525050565b600061045760128361060f565b91507f416d6f756e74206d757374206265203e203000000000000000000000000000006000830152602082019050919050565b600061049760148361060f565b91507f496e73756666696369656e742062616c616e63650000000000000000000000006000830152602082019050919050565b60006104d760098361060f565b91507f4e6f74206f776e657200000000000000000000000000000000000000000000006000830152602082019050919050565b6000610517600d8361060f565b91507f4e6f2076616c75652073656e74000000000000000000000000000000000000006000830152602082019050919050565b610553816106dc565b82525050565b600060208201905061056e600083018461043b565b92915050565b6000602082019050818103600083015261058d8161044a565b9050919050565b600060208201905081810360008301526105ad8161048a565b9050919050565b600060208201905081810360008301526105cd816104ca565b9050919050565b600060208201905081810360008301526105ed8161050a565b9050919050565b6000602082019050610609600083018461054a565b92915050565b600082825260208201905092915050565b600061062b826106dc565b9150610636836106dc565b9250827fffffffffffffffffffffffffffffffffffffffffffffffffffffffffffffffff0382111561066b5761066a6106e6565b5b828201905092915050565b6000610681826106dc565b915061068c836106dc565b92508282101561069f5761069e6106e6565b5b828203905092915050565b60006106b5826106bc565b9050919050565b600073ffffffffffffffffffffffffffffffffffffffff82169050919050565b6000819050919050565b7f4e487b7100000000000000000000000000000000000000000000000000000000600052601160045260246000fd5b61071e816106dc565b811461072957600080fd5b5056fea264697066735822122064b887e29520a07b2e27ab7d0a2dbc4aafc6aed5a351cb1b614a70e370c6a83b64736f6c63430008000033",
  "linkReferences": {},
  "deployedLinkReferences": {}
}